{
  "contractName": "Voting",
  "abi": [
    {
      "inputs": [],
      "stateMutability": "nonpayable",
      "type": "constructor"
    },
    {
      "anonymous": false,
      "inputs": [
        {
          "indexed": false,
          "internalType": "uint256",
          "name": "id",
          "type": "uint256"
        },
        {
          "indexed": false,
          "internalType": "string",
          "name": "name",
          "type": "string"
        },
        {
          "indexed": false,
          "internalType": "string",
          "name": "party",
          "type": "string"
        },
        {
          "indexed": false,
          "internalType": "uint256",
          "name": "age",
          "type": "uint256"
        },
        {
          "indexed": false,
          "internalType": "string",
          "name": "qualification",
          "type": "string"
        }
      ],
      "name": "ContestantAdded",
      "type": "event"
    },
    {
      "anonymous": false,
      "inputs": [
        {
          "indexed": false,
          "internalType": "address",
          "name": "voter",
          "type": "address"
        },
        {
          "indexed": false,
          "internalType": "uint256",
          "name": "contestantId",
          "type": "uint256"
        }
      ],
      "name": "Voted",
      "type": "event"
    },
    {
      "anonymous": false,
      "inputs": [
        {
          "indexed": false,
          "internalType": "address",
          "name": "voter",
          "type": "address"
        },
        {
          "indexed": false,
          "internalType": "string",
          "name": "name",
          "type": "string"
        }
      ],
      "name": "VoterRegistered",
      "type": "event"
    },
    {
      "inputs": [],
      "name": "admin",
      "outputs": [
        {
          "internalType": "address",
          "name": "",
          "type": "address"
        }
      ],
      "stateMutability": "view",
      "type": "function",
      "constant": true
    },
    {
      "inputs": [
        {
          "internalType": "uint256",
          "name": "",
          "type": "uint256"
        }
      ],
      "name": "contestants",
      "outputs": [
        {
          "internalType": "uint256",
          "name": "id",
          "type": "uint256"
        },
        {
          "internalType": "string",
          "name": "name",
          "type": "string"
        },
        {
          "internalType": "uint256",
          "name": "voteCount",
          "type": "uint256"
        },
        {
          "internalType": "string",
          "name": "party",
          "type": "string"
        },
        {
          "internalType": "uint256",
          "name": "age",
          "type": "uint256"
        },
        {
          "internalType": "string",
          "name": "qualification",
          "type": "string"
        }
      ],
      "stateMutability": "view",
      "type": "function",
      "constant": true
    },
    {
      "inputs": [],
      "name": "contestantsCount",
      "outputs": [
        {
          "internalType": "uint256",
          "name": "",
          "type": "uint256"
        }
      ],
      "stateMutability": "view",
      "type": "function",
      "constant": true
    },
    {
      "inputs": [],
      "name": "state",
      "outputs": [
        {
          "internalType": "enum Voting.PHASE",
          "name": "",
          "type": "uint8"
        }
      ],
      "stateMutability": "view",
      "type": "function",
      "constant": true
    },
    {
      "inputs": [
        {
          "internalType": "address",
          "name": "",
          "type": "address"
        }
      ],
      "name": "voters",
      "outputs": [
        {
          "internalType": "bool",
          "name": "hasVoted",
          "type": "bool"
        },
        {
          "internalType": "uint256",
          "name": "vote",
          "type": "uint256"
        },
        {
          "internalType": "bool",
          "name": "isRegistered",
          "type": "bool"
        },
        {
          "internalType": "string",
          "name": "name",
          "type": "string"
        }
      ],
      "stateMutability": "view",
      "type": "function",
      "constant": true
    },
    {
      "inputs": [
        {
          "internalType": "enum Voting.PHASE",
          "name": "x",
          "type": "uint8"
        }
      ],
      "name": "changeState",
      "outputs": [],
      "stateMutability": "nonpayable",
      "type": "function"
    },
    {
      "inputs": [
        {
          "internalType": "string",
          "name": "_name",
          "type": "string"
        },
        {
          "internalType": "string",
          "name": "_party",
          "type": "string"
        },
        {
          "internalType": "uint256",
          "name": "_age",
          "type": "uint256"
        },
        {
          "internalType": "string",
          "name": "_qualification",
          "type": "string"
        }
      ],
      "name": "addContestant",
      "outputs": [],
      "stateMutability": "nonpayable",
      "type": "function"
    },
    {
      "inputs": [
        {
          "internalType": "address",
          "name": "user",
          "type": "address"
        },
        {
          "internalType": "string",
          "name": "_name",
          "type": "string"
        }
      ],
      "name": "registerVoter",
      "outputs": [],
      "stateMutability": "nonpayable",
      "type": "function"
    },
    {
      "inputs": [
        {
          "internalType": "uint256",
          "name": "_contestantId",
          "type": "uint256"
        }
      ],
      "name": "vote",
      "outputs": [],
      "stateMutability": "nonpayable",
      "type": "function"
    },
    {
      "inputs": [
        {
          "internalType": "uint256",
          "name": "_id",
          "type": "uint256"
        }
      ],
      "name": "getContestant",
      "outputs": [
        {
          "internalType": "string",
          "name": "name",
          "type": "string"
        },
        {
          "internalType": "uint256",
          "name": "voteCount",
          "type": "uint256"
        },
        {
          "internalType": "string",
          "name": "party",
          "type": "string"
        },
        {
          "internalType": "uint256",
          "name": "age",
          "type": "uint256"
        },
        {
          "internalType": "string",
          "name": "qualification",
          "type": "string"
        }
      ],
      "stateMutability": "view",
      "type": "function",
      "constant": true
    },
    {
      "inputs": [],
      "name": "getAllContestants",
      "outputs": [
        {
          "components": [
            {
              "internalType": "uint256",
              "name": "id",
              "type": "uint256"
            },
            {
              "internalType": "string",
              "name": "name",
              "type": "string"
            },
            {
              "internalType": "uint256",
              "name": "voteCount",
              "type": "uint256"
            },
            {
              "internalType": "string",
              "name": "party",
              "type": "string"
            },
            {
              "internalType": "uint256",
              "name": "age",
              "type": "uint256"
            },
            {
              "internalType": "string",
              "name": "qualification",
              "type": "string"
            }
          ],
          "internalType": "struct Voting.Contestant[]",
          "name": "",
          "type": "tuple[]"
        }
      ],
      "stateMutability": "view",
      "type": "function",
      "constant": true
    },
    {
      "inputs": [
        {
          "internalType": "address",
          "name": "_voter",
          "type": "address"
        }
      ],
      "name": "getVoterName",
      "outputs": [
        {
          "internalType": "string",
          "name": "",
          "type": "string"
        }
      ],
      "stateMutability": "view",
      "type": "function",
      "constant": true
    },
    {
      "inputs": [
        {
          "internalType": "address",
          "name": "_voter",
          "type": "address"
        }
      ],
      "name": "getVoterStatus",
      "outputs": [
        {
          "internalType": "bool",
          "name": "hasVoted",
          "type": "bool"
        },
        {
          "internalType": "uint256",
          "name": "voteId",
          "type": "uint256"
        },
        {
          "internalType": "bool",
          "name": "isRegistered",
          "type": "bool"
        }
      ],
      "stateMutability": "view",
      "type": "function",
      "constant": true
    },
    {
      "inputs": [],
      "name": "getVotingStatus",
      "outputs": [
        {
          "internalType": "enum Voting.PHASE",
          "name": "",
          "type": "uint8"
        }
      ],
      "stateMutability": "view",
      "type": "function",
      "constant": true
    }
  ],
  "bytecode": "0x608060405234801561001057600080fd5b50600080546001600160a01b031916331781556004805460ff1916905561186290819061003d90396000f3fe608060405234801561001057600080fd5b50600436106100ea5760003560e01c8063c19d93fb1161008c578063ebbb4f8411610066578063ebbb4f8414610200578063ec63d1c814610213578063ef32818614610228578063f851a4401461023b576100ea565b8063c19d93fb146101b3578063c22b6b9d146101bb578063dfd50f52146101db576100ea565b8063581c281c116100c8578063581c281c1461014457806378e3ef2014610159578063a3ec138d1461017b578063bc0a5b051461019e576100ea565b80630121b93f146100ef5780630559dd6514610104578063268f115314610131575b600080fd5b6101026100fd366004611336565b610250565b005b610117610112366004611336565b6103ad565b604051610128959493929190611539565b60405180910390f35b61010261013f366004611289565b6105fe565b61014c6106bf565b60405161012891906114fe565b61016c61016736600461121c565b6106c8565b604051610128939291906114b1565b61018e61018936600461121c565b6107cb565b60405161012894939291906114cb565b6101a6610885565b60405161012891906113f2565b61014c610b35565b6101ce6101c936600461121c565b610b3e565b6040516101289190611526565b6101ee6101e9366004611336565b610bee565b6040516101289695949392919061173b565b61010261020e36600461123d565b610dba565b61021b610f26565b6040516101289190611707565b6101026102363660046112a8565b610f2c565b6102436110a6565b6040516101289190611399565b60018060045460ff16600281111561027857634e487b7160e01b600052602160045260246000fd5b1461029e5760405162461bcd60e51b8152600401610295906116a0565b60405180910390fd5b336000908152600260208190526040909120015460ff166102d15760405162461bcd60e51b81526004016102959061158a565b3360009081526002602052604090205460ff16156103015760405162461bcd60e51b8152600401610295906116d7565b60008211801561031357506003548211155b61032f5760405162461bcd60e51b8152600401610295906115c1565b600082815260016020526040812060020180549161034c836117e5565b90915550503360008181526002602052604090819020805460ff19166001908117825501849055517f4d99b957a2bc29a30ebd96a7be8e68fe50a3c701db28a91436490b7d53870ca4916103a19185906113d9565b60405180910390a15050565b606060006060600060606000861180156103c957506003548611155b6103e55760405162461bcd60e51b8152600401610295906115c1565b6000868152600160208181526040808420815160c08101909252805482529283018054919392840191610417906117aa565b80601f0160208091040260200160405190810160405280929190818152602001828054610443906117aa565b80156104905780601f1061046557610100808354040283529160200191610490565b820191906000526020600020905b81548152906001019060200180831161047357829003601f168201915b50505050508152602001600282015481526020016003820180546104b3906117aa565b80601f01602080910402602001604051908101604052809291908181526020018280546104df906117aa565b801561052c5780601f106105015761010080835404028352916020019161052c565b820191906000526020600020905b81548152906001019060200180831161050f57829003601f168201915b505050505081526020016004820154815260200160058201805461054f906117aa565b80601f016020809104026020016040519081016040528092919081815260200182805461057b906117aa565b80156105c85780601f1061059d576101008083540402835291602001916105c8565b820191906000526020600020905b8154815290600101906020018083116105ab57829003601f168201915b50505091909252505050602081015160408201516060830151608084015160a090940151929b919a509850919650945092505050565b6000546001600160a01b031633146106285760405162461bcd60e51b81526004016102959061165e565b60045460ff16600281111561064d57634e487b7160e01b600052602160045260246000fd5b81600281111561066d57634e487b7160e01b600052602160045260246000fd5b1161068a5760405162461bcd60e51b815260040161029590611627565b6004805482919060ff191660018360028111156106b757634e487b7160e01b600052602160045260246000fd5b021790555050565b60045460ff1690565b6001600160a01b03811660009081526002602081815260408084208151608081018352815460ff908116151582526001830154948201949094529381015490921615159083015260038101805484938493849391929091606084019161072d906117aa565b80601f0160208091040260200160405190810160405280929190818152602001828054610759906117aa565b80156107a65780601f1061077b576101008083540402835291602001916107a6565b820191906000526020600020905b81548152906001019060200180831161078957829003601f168201915b5050509190925250508151602083015160409093015190989297509550909350505050565b6002602081905260009182526040909120805460018201549282015460038301805460ff93841695949290931692610802906117aa565b80601f016020809104026020016040519081016040528092919081815260200182805461082e906117aa565b801561087b5780601f106108505761010080835404028352916020019161087b565b820191906000526020600020905b81548152906001019060200180831161085e57829003601f168201915b5050505050905084565b6060600060035467ffffffffffffffff8111156108b257634e487b7160e01b600052604160045260246000fd5b6040519080825280602002602001820160405280156108eb57816020015b6108d86110b5565b8152602001906001900390816108d05790505b50905060015b6003548111610b2f57600081815260016020818152604092839020835160c081019094528054845291820180549184019161092b906117aa565b80601f0160208091040260200160405190810160405280929190818152602001828054610957906117aa565b80156109a45780601f10610979576101008083540402835291602001916109a4565b820191906000526020600020905b81548152906001019060200180831161098757829003601f168201915b50505050508152602001600282015481526020016003820180546109c7906117aa565b80601f01602080910402602001604051908101604052809291908181526020018280546109f3906117aa565b8015610a405780601f10610a1557610100808354040283529160200191610a40565b820191906000526020600020905b815481529060010190602001808311610a2357829003601f168201915b5050505050815260200160048201548152602001600582018054610a63906117aa565b80601f0160208091040260200160405190810160405280929190818152602001828054610a8f906117aa565b8015610adc5780601f10610ab157610100808354040283529160200191610adc565b820191906000526020600020905b815481529060010190602001808311610abf57829003601f168201915b50505050508152505082600183610af39190611793565b81518110610b1157634e487b7160e01b600052603260045260246000fd5b60200260200101819052508080610b27906117e5565b9150506108f1565b50905090565b60045460ff1681565b6001600160a01b0381166000908152600260205260409020600301805460609190610b68906117aa565b80601f0160208091040260200160405190810160405280929190818152602001828054610b94906117aa565b8015610be15780601f10610bb657610100808354040283529160200191610be1565b820191906000526020600020905b815481529060010190602001808311610bc457829003601f168201915b505050505090505b919050565b600160208190526000918252604090912080549181018054610c0f906117aa565b80601f0160208091040260200160405190810160405280929190818152602001828054610c3b906117aa565b8015610c885780601f10610c5d57610100808354040283529160200191610c88565b820191906000526020600020905b815481529060010190602001808311610c6b57829003601f168201915b505050505090806002015490806003018054610ca3906117aa565b80601f0160208091040260200160405190810160405280929190818152602001828054610ccf906117aa565b8015610d1c5780601f10610cf157610100808354040283529160200191610d1c565b820191906000526020600020905b815481529060010190602001808311610cff57829003601f168201915b505050505090806004015490806005018054610d37906117aa565b80601f0160208091040260200160405190810160405280929190818152602001828054610d63906117aa565b8015610db05780601f10610d8557610100808354040283529160200191610db0565b820191906000526020600020905b815481529060010190602001808311610d9357829003601f168201915b5050505050905086565b6000546001600160a01b03163314610de45760405162461bcd60e51b81526004016102959061165e565b60008060045460ff166002811115610e0c57634e487b7160e01b600052602160045260246000fd5b14610e295760405162461bcd60e51b8152600401610295906116a0565b6001600160a01b0383166000908152600260208190526040909120015460ff1615610e665760405162461bcd60e51b8152600401610295906115f0565b60408051608081018252600080825260208083018281526001848601818152606086018981526001600160a01b038b1686526002808652979095208651815490151560ff199182161782559351928101929092555195810180549615159690921695909517905590518051929392610ee492600385019201906110eb565b509050507fffeb7702be7dcd8fee170d954b70afb9a7c78f7f5cff232d037e7b9d8243356a8383604051610f199291906113ad565b60405180910390a1505050565b60035481565b6000546001600160a01b03163314610f565760405162461bcd60e51b81526004016102959061165e565b60008060045460ff166002811115610f7e57634e487b7160e01b600052602160045260246000fd5b14610f9b5760405162461bcd60e51b8152600401610295906116a0565b60038054906000610fab836117e5565b90915550506040805160c08101825260035480825260208083018981526000848601819052606085018a90526080850189905260a0850188905292835260018083529490922083518155915180519394929361100e9385019291909101906110eb565b5060408201516002820155606082015180516110349160038401916020909101906110eb565b506080820151600482015560a0820151805161105a9160058401916020909101906110eb565b509050507f9097ea011b32b7bfd98a4f10a9ab1ea26fd644e6125f13b554cae047dc23597860035486868686604051611097959493929190611710565b60405180910390a15050505050565b6000546001600160a01b031681565b6040518060c001604052806000815260200160608152602001600081526020016060815260200160008152602001606081525090565b8280546110f7906117aa565b90600052602060002090601f016020900481019282611119576000855561115f565b82601f1061113257805160ff191683800117855561115f565b8280016001018555821561115f579182015b8281111561115f578251825591602001919060010190611144565b5061116b92915061116f565b5090565b5b8082111561116b5760008155600101611170565b80356001600160a01b0381168114610be957600080fd5b600082601f8301126111ab578081fd5b813567ffffffffffffffff808211156111c6576111c6611816565b604051601f8301601f1916810160200182811182821017156111ea576111ea611816565b604052828152848301602001861015611201578384fd5b82602086016020830137918201602001929092529392505050565b60006020828403121561122d578081fd5b61123682611184565b9392505050565b6000806040838503121561124f578081fd5b61125883611184565b9150602083013567ffffffffffffffff811115611273578182fd5b61127f8582860161119b565b9150509250929050565b60006020828403121561129a578081fd5b813560038110611236578182fd5b600080600080608085870312156112bd578182fd5b843567ffffffffffffffff808211156112d4578384fd5b6112e08883890161119b565b955060208701359150808211156112f5578384fd5b6113018883890161119b565b945060408701359350606087013591508082111561131d578283fd5b5061132a8782880161119b565b91505092959194509250565b600060208284031215611347578081fd5b5035919050565b60008151808452815b8181101561137357602081850181015186830182015201611357565b818111156113845782602083870101525b50601f01601f19169290920160200192915050565b6001600160a01b0391909116815260200190565b6001600160a01b03831681526040602082018190526000906113d19083018461134e565b949350505050565b6001600160a01b03929092168252602082015260400190565b60208082528251828201819052600091906040908185019080840286018301878501865b838110156114a357603f19898403018552815160c08151855288820151818a8701526114448287018261134e565b915050878201518886015260608083015186830382880152611466838261134e565b92505050608080830151818701525060a0808301519250858203818701525061148f818361134e565b968901969450505090860190600101611416565b509098975050505050505050565b921515835260208301919091521515604082015260600190565b600085151582528460208301528315156040830152608060608301526114f4608083018461134e565b9695505050505050565b602081016003831061152057634e487b7160e01b600052602160045260246000fd5b91905290565b600060208252611236602083018461134e565b600060a0825261154c60a083018861134e565b8660208401528281036040840152611564818761134e565b9050846060840152828103608084015261157e818561134e565b98975050505050505050565b6020808252601e908201527f596f7520617265206e6f74207265676973746572656420746f20766f74650000604082015260600190565b602080825260159082015274125b9d985b1a590818dbdb9d195cdd185b9d081251605a1b604082015260600190565b60208082526018908201527f566f74657220616c726561647920726567697374657265640000000000000000604082015260600190565b6020808252601f908201527f43616e6e6f742072657665727420746f2070726576696f757320737461746500604082015260600190565b60208082526022908201527f4f6e6c792061646d696e2063616e20706572666f726d2074686973206163746960408201526137b760f11b606082015260800190565b6020808252601d908201527f496e76616c696420737461746520666f72207468697320616374696f6e000000604082015260600190565b602080825260169082015275165bdd481a185d9948185b1c9958591e481d9bdd195960521b604082015260600190565b90815260200190565b600086825260a0602083015261172960a083018761134e565b8281036040840152611564818761134e565b600087825260c0602083015261175460c083018861134e565b866040840152828103606084015261176c818761134e565b905084608084015282810360a0840152611786818561134e565b9998505050505050505050565b6000828210156117a5576117a5611800565b500390565b6002810460018216806117be57607f821691505b602082108114156117df57634e487b7160e01b600052602260045260246000fd5b50919050565b60006000198214156117f9576117f9611800565b5060010190565b634e487b7160e01b600052601160045260246000fd5b634e487b7160e01b600052604160045260246000fdfea2646970667358221220c9281e0fd7af5e6b6ca9375212d0c8c84ff00429d37d7accacf0aa73cce0426464736f6c63430008000033",
  "immutableReferences": {},
  "source": "// SPDX-License-Identifier: MIT\npragma solidity ^0.8.0;\n\ncontract Voting {\n    struct Contestant {\n        uint id;\n        string name;\n        uint voteCount;\n        string party;\n        uint age;\n        string qualification;\n    }\n\n    struct Voter {\n        bool hasVoted;\n        uint vote;\n        bool isRegistered;\n        string name;\n    }\n\n    address public admin;\n    mapping(uint => Contestant) public contestants;\n    mapping(address => Voter) public voters;\n    uint public contestantsCount;\n\n    enum PHASE { reg, voting, done }\n    PHASE public state;\n\n    event ContestantAdded(uint id, string name, string party, uint age, string qualification);\n    event VoterRegistered(address voter, string name);\n    event Voted(address voter, uint contestantId);\n\n    modifier onlyAdmin() {\n        require(msg.sender == admin, \"Only admin can perform this action\");\n        _;\n    }\n\n    modifier validState(PHASE x) {\n        require(state == x, \"Invalid state for this action\");\n        _;\n    }\n\n    constructor() {\n        admin = msg.sender;\n        state = PHASE.reg;\n    }\n\n    function changeState(PHASE x) public onlyAdmin {\n        require(x > state, \"Cannot revert to previous state\");\n        state = x;\n    }\n\n    function addContestant(string memory _name, string memory _party, uint _age, string memory _qualification) public onlyAdmin validState(PHASE.reg) {\n        contestantsCount++;\n        contestants[contestantsCount] = Contestant(contestantsCount, _name, 0, _party, _age, _qualification);\n        emit ContestantAdded(contestantsCount, _name, _party, _age, _qualification);\n    }\n\n    function registerVoter(address user, string memory _name) public onlyAdmin validState(PHASE.reg) {\n        require(!voters[user].isRegistered, \"Voter already registered\");\n        voters[user] = Voter(false, 0, true, _name);\n        emit VoterRegistered(user, _name);\n    }\n\n    function vote(uint _contestantId) public validState(PHASE.voting) {\n        require(voters[msg.sender].isRegistered, \"You are not registered to vote\");\n        require(!voters[msg.sender].hasVoted, \"You have already voted\");\n        require(_contestantId > 0 && _contestantId <= contestantsCount, \"Invalid contestant ID\");\n        \n        contestants[_contestantId].voteCount++;\n        voters[msg.sender].hasVoted = true;\n        voters[msg.sender].vote = _contestantId;\n        emit Voted(msg.sender, _contestantId);\n    }\n\n    function getContestant(uint _id) public view returns (string memory name, uint voteCount, string memory party, uint age, string memory qualification) {\n        require(_id > 0 && _id <= contestantsCount, \"Invalid contestant ID\");\n        Contestant memory contestant = contestants[_id];\n        return (contestant.name, contestant.voteCount, contestant.party, contestant.age, contestant.qualification);\n    }\n\n    function getAllContestants() public view returns (Contestant[] memory) {\n        Contestant[] memory allContestants = new Contestant[](contestantsCount);\n        for (uint i = 1; i <= contestantsCount; i++) {\n            allContestants[i - 1] = contestants[i];\n        }\n        return allContestants;\n    }\n\n    function getVoterName(address _voter) public view returns (string memory) {\n        return voters[_voter].name;\n    }\n\n    function getVoterStatus(address _voter) public view returns (bool hasVoted, uint voteId, bool isRegistered) {\n        Voter memory voter = voters[_voter];\n        return (voter.hasVoted, voter.vote, voter.isRegistered);\n    }\n\n    function getVotingStatus() public view returns (PHASE) {\n        return state;\n    }\n}\n",
  "sourcePath": "D:\\My Projects\\blockchain-voting-system\\contracts\\Voting.sol",
  "compiler": {
    "name": "solc",
    "version": "0.8.0+commit.c7dfd78e.Emscripten.clang"
  },
  "schemaVersion": "3.4.16",
  "updatedAt": "2024-08-02T03:13:42.609Z",
  "networkType": "ethereum",
  "devdoc": {
    "kind": "dev",
    "methods": {},
    "version": 1
  },
  "userdoc": {
    "kind": "user",
    "methods": {},
    "version": 1
  }
}