{
  "contractName": "Voting",
  "abi": [
    {
      "inputs": [],
      "stateMutability": "nonpayable",
      "type": "constructor"
    },
    {
      "anonymous": false,
      "inputs": [
        {
          "indexed": false,
          "internalType": "uint256",
          "name": "id",
          "type": "uint256"
        },
        {
          "indexed": false,
          "internalType": "string",
          "name": "name",
          "type": "string"
        },
        {
          "indexed": false,
          "internalType": "string",
          "name": "party",
          "type": "string"
        },
        {
          "indexed": false,
          "internalType": "uint256",
          "name": "age",
          "type": "uint256"
        },
        {
          "indexed": false,
          "internalType": "string",
          "name": "qualification",
          "type": "string"
        }
      ],
      "name": "ContestantAdded",
      "type": "event"
    },
    {
      "anonymous": false,
      "inputs": [
        {
          "indexed": false,
          "internalType": "address",
          "name": "voter",
          "type": "address"
        },
        {
          "indexed": false,
          "internalType": "uint256",
          "name": "contestantId",
          "type": "uint256"
        }
      ],
      "name": "Voted",
      "type": "event"
    },
    {
      "anonymous": false,
      "inputs": [
        {
          "indexed": false,
          "internalType": "address",
          "name": "voter",
          "type": "address"
        },
        {
          "indexed": false,
          "internalType": "string",
          "name": "name",
          "type": "string"
        }
      ],
      "name": "VoterRegistered",
      "type": "event"
    },
    {
      "inputs": [],
      "name": "admin",
      "outputs": [
        {
          "internalType": "address",
          "name": "",
          "type": "address"
        }
      ],
      "stateMutability": "view",
      "type": "function",
      "constant": true
    },
    {
      "inputs": [
        {
          "internalType": "uint256",
          "name": "",
          "type": "uint256"
        }
      ],
      "name": "contestants",
      "outputs": [
        {
          "internalType": "uint256",
          "name": "id",
          "type": "uint256"
        },
        {
          "internalType": "string",
          "name": "name",
          "type": "string"
        },
        {
          "internalType": "uint256",
          "name": "voteCount",
          "type": "uint256"
        },
        {
          "internalType": "string",
          "name": "party",
          "type": "string"
        },
        {
          "internalType": "uint256",
          "name": "age",
          "type": "uint256"
        },
        {
          "internalType": "string",
          "name": "qualification",
          "type": "string"
        }
      ],
      "stateMutability": "view",
      "type": "function",
      "constant": true
    },
    {
      "inputs": [],
      "name": "contestantsCount",
      "outputs": [
        {
          "internalType": "uint256",
          "name": "",
          "type": "uint256"
        }
      ],
      "stateMutability": "view",
      "type": "function",
      "constant": true
    },
    {
      "inputs": [],
      "name": "state",
      "outputs": [
        {
          "internalType": "enum Voting.PHASE",
          "name": "",
          "type": "uint8"
        }
      ],
      "stateMutability": "view",
      "type": "function",
      "constant": true
    },
    {
      "inputs": [
        {
          "internalType": "address",
          "name": "",
          "type": "address"
        }
      ],
      "name": "voters",
      "outputs": [
        {
          "internalType": "bool",
          "name": "hasVoted",
          "type": "bool"
        },
        {
          "internalType": "uint256",
          "name": "vote",
          "type": "uint256"
        },
        {
          "internalType": "bool",
          "name": "isRegistered",
          "type": "bool"
        },
        {
          "internalType": "string",
          "name": "name",
          "type": "string"
        }
      ],
      "stateMutability": "view",
      "type": "function",
      "constant": true
    },
    {
      "inputs": [
        {
          "internalType": "enum Voting.PHASE",
          "name": "x",
          "type": "uint8"
        }
      ],
      "name": "changeState",
      "outputs": [],
      "stateMutability": "nonpayable",
      "type": "function"
    },
    {
      "inputs": [
        {
          "internalType": "string",
          "name": "_name",
          "type": "string"
        },
        {
          "internalType": "string",
          "name": "_party",
          "type": "string"
        },
        {
          "internalType": "uint256",
          "name": "_age",
          "type": "uint256"
        },
        {
          "internalType": "string",
          "name": "_qualification",
          "type": "string"
        }
      ],
      "name": "addContestant",
      "outputs": [],
      "stateMutability": "nonpayable",
      "type": "function"
    },
    {
      "inputs": [
        {
          "internalType": "address",
          "name": "user",
          "type": "address"
        },
        {
          "internalType": "string",
          "name": "_name",
          "type": "string"
        }
      ],
      "name": "registerVoter",
      "outputs": [],
      "stateMutability": "nonpayable",
      "type": "function"
    },
    {
      "inputs": [
        {
          "internalType": "uint256",
          "name": "_contestantId",
          "type": "uint256"
        }
      ],
      "name": "vote",
      "outputs": [],
      "stateMutability": "nonpayable",
      "type": "function"
    },
    {
      "inputs": [
        {
          "internalType": "uint256",
          "name": "_id",
          "type": "uint256"
        }
      ],
      "name": "getContestant",
      "outputs": [
        {
          "internalType": "string",
          "name": "name",
          "type": "string"
        },
        {
          "internalType": "uint256",
          "name": "voteCount",
          "type": "uint256"
        },
        {
          "internalType": "string",
          "name": "party",
          "type": "string"
        },
        {
          "internalType": "uint256",
          "name": "age",
          "type": "uint256"
        },
        {
          "internalType": "string",
          "name": "qualification",
          "type": "string"
        }
      ],
      "stateMutability": "view",
      "type": "function",
      "constant": true
    },
    {
      "inputs": [],
      "name": "getAllContestants",
      "outputs": [
        {
          "components": [
            {
              "internalType": "uint256",
              "name": "id",
              "type": "uint256"
            },
            {
              "internalType": "string",
              "name": "name",
              "type": "string"
            },
            {
              "internalType": "uint256",
              "name": "voteCount",
              "type": "uint256"
            },
            {
              "internalType": "string",
              "name": "party",
              "type": "string"
            },
            {
              "internalType": "uint256",
              "name": "age",
              "type": "uint256"
            },
            {
              "internalType": "string",
              "name": "qualification",
              "type": "string"
            }
          ],
          "internalType": "struct Voting.Contestant[]",
          "name": "",
          "type": "tuple[]"
        }
      ],
      "stateMutability": "view",
      "type": "function",
      "constant": true
    },
    {
      "inputs": [
        {
          "internalType": "address",
          "name": "_voter",
          "type": "address"
        }
      ],
      "name": "getVoterName",
      "outputs": [
        {
          "internalType": "string",
          "name": "",
          "type": "string"
        }
      ],
      "stateMutability": "view",
      "type": "function",
      "constant": true
    },
    {
      "inputs": [
        {
          "internalType": "address",
          "name": "_voter",
          "type": "address"
        }
      ],
      "name": "getVoterStatus",
      "outputs": [
        {
          "internalType": "bool",
          "name": "hasVoted",
          "type": "bool"
        },
        {
          "internalType": "uint256",
          "name": "vote",
          "type": "uint256"
        },
        {
          "internalType": "bool",
          "name": "isRegistered",
          "type": "bool"
        }
      ],
      "stateMutability": "view",
      "type": "function",
      "constant": true
    },
    {
      "inputs": [],
      "name": "getVotingStatus",
      "outputs": [
        {
          "internalType": "enum Voting.PHASE",
          "name": "",
          "type": "uint8"
        }
      ],
      "stateMutability": "view",
      "type": "function",
      "constant": true
    }
  ],
  "bytecode": "0x608060405234801561001057600080fd5b50336000806101000a81548173ffffffffffffffffffffffffffffffffffffffff021916908373ffffffffffffffffffffffffffffffffffffffff1602179055506000600460006101000a81548160ff0219169083600281111561009d577f4e487b7100000000000000000000000000000000000000000000000000000000600052602160045260246000fd5b021790555061257b806100b16000396000f3fe608060405234801561001057600080fd5b50600436106100ea5760003560e01c8063c19d93fb1161008c578063ebbb4f8411610066578063ebbb4f841461027f578063ec63d1c81461029b578063ef328186146102b9578063f851a440146102d5576100ea565b8063c19d93fb146101fc578063c22b6b9d1461021a578063dfd50f521461024a576100ea565b8063581c281c116100c8578063581c281c1461015b57806378e3ef2014610179578063a3ec138d146101ab578063bc0a5b05146101de576100ea565b80630121b93f146100ef5780630559dd651461010b578063268f11531461013f575b600080fd5b61010960048036038101906101049190611a7e565b6102f3565b005b61012560048036038101906101209190611a7e565b610631565b604051610136959493929190611fc0565b60405180910390f35b610159600480360381019061015491906119aa565b6108af565b005b610163610a51565b6040516101709190611f83565b60405180910390f35b610193600480360381019061018e919061192d565b610a68565b6040516101a293929190611f00565b60405180910390f35b6101c560048036038101906101c0919061192d565b610ba9565b6040516101d59493929190611f37565b60405180910390f35b6101e6610c7b565b6040516101f39190611ede565b60405180910390f35b610204610f6a565b6040516102119190611f83565b60405180910390f35b610234600480360381019061022f919061192d565b610f7d565b6040516102419190611f9e565b60405180910390f35b610264600480360381019061025f9190611a7e565b611051565b6040516102769695949392919061218b565b60405180910390f35b61029960048036038101906102949190611956565b611225565b005b6102a3611515565b6040516102b09190612108565b60405180910390f35b6102d360048036038101906102ce91906119d3565b61151b565b005b6102dd611789565b6040516102ea9190611e6a565b60405180910390f35b600180600281111561032e577f4e487b7100000000000000000000000000000000000000000000000000000000600052602160045260246000fd5b600460009054906101000a900460ff166002811115610376577f4e487b7100000000000000000000000000000000000000000000000000000000600052602160045260246000fd5b146103b6576040517f08c379a00000000000000000000000000000000000000000000000000000000081526004016103ad906120c8565b60405180910390fd5b600260003373ffffffffffffffffffffffffffffffffffffffff1673ffffffffffffffffffffffffffffffffffffffff16815260200190815260200160002060020160009054906101000a900460ff16610445576040517f08c379a000000000000000000000000000000000000000000000000000000000815260040161043c90612028565b60405180910390fd5b600260003373ffffffffffffffffffffffffffffffffffffffff1673ffffffffffffffffffffffffffffffffffffffff16815260200190815260200160002060000160009054906101000a900460ff16156104d5576040517f08c379a00000000000000000000000000000000000000000000000000000000081526004016104cc906120e8565b60405180910390fd5b6000821180156104e757506003548211155b610526576040517f08c379a000000000000000000000000000000000000000000000000000000000815260040161051d90612048565b60405180910390fd5b60016000838152602001908152602001600020600201600081548092919061054d906123dd565b91905055506001600260003373ffffffffffffffffffffffffffffffffffffffff1673ffffffffffffffffffffffffffffffffffffffff16815260200190815260200160002060000160006101000a81548160ff02191690831515021790555081600260003373ffffffffffffffffffffffffffffffffffffffff1673ffffffffffffffffffffffffffffffffffffffff168152602001908152602001600020600101819055507f4d99b957a2bc29a30ebd96a7be8e68fe50a3c701db28a91436490b7d53870ca43383604051610625929190611eb5565b60405180910390a15050565b6060600060606000606060008611801561064d57506003548611155b61068c576040517f08c379a000000000000000000000000000000000000000000000000000000000815260040161068390612048565b60405180910390fd5b6000600160008881526020019081526020016000206040518060c0016040529081600082015481526020016001820180546106c6906123ab565b80601f01602080910402602001604051908101604052809291908181526020018280546106f2906123ab565b801561073f5780601f106107145761010080835404028352916020019161073f565b820191906000526020600020905b81548152906001019060200180831161072257829003601f168201915b5050505050815260200160028201548152602001600382018054610762906123ab565b80601f016020809104026020016040519081016040528092919081815260200182805461078e906123ab565b80156107db5780601f106107b0576101008083540402835291602001916107db565b820191906000526020600020905b8154815290600101906020018083116107be57829003601f168201915b50505050508152602001600482015481526020016005820180546107fe906123ab565b80601f016020809104026020016040519081016040528092919081815260200182805461082a906123ab565b80156108775780601f1061084c57610100808354040283529160200191610877565b820191906000526020600020905b81548152906001019060200180831161085a57829003601f168201915b505050505081525050905080602001518160400151826060015183608001518460a00151955095509550955095505091939590929450565b60008054906101000a900473ffffffffffffffffffffffffffffffffffffffff1673ffffffffffffffffffffffffffffffffffffffff163373ffffffffffffffffffffffffffffffffffffffff161461093d576040517f08c379a0000000000000000000000000000000000000000000000000000000008152600401610934906120a8565b60405180910390fd5b600460009054906101000a900460ff166002811115610985577f4e487b7100000000000000000000000000000000000000000000000000000000600052602160045260246000fd5b8160028111156109be577f4e487b7100000000000000000000000000000000000000000000000000000000600052602160045260246000fd5b116109fe576040517f08c379a00000000000000000000000000000000000000000000000000000000081526004016109f590612088565b60405180910390fd5b80600460006101000a81548160ff02191690836002811115610a49577f4e487b7100000000000000000000000000000000000000000000000000000000600052602160045260246000fd5b021790555050565b6000600460009054906101000a900460ff16905090565b600080600080600260008673ffffffffffffffffffffffffffffffffffffffff1673ffffffffffffffffffffffffffffffffffffffff1681526020019081526020016000206040518060800160405290816000820160009054906101000a900460ff16151515158152602001600182015481526020016002820160009054906101000a900460ff16151515158152602001600382018054610b08906123ab565b80601f0160208091040260200160405190810160405280929190818152602001828054610b34906123ab565b8015610b815780601f10610b5657610100808354040283529160200191610b81565b820191906000526020600020905b815481529060010190602001808311610b6457829003601f168201915b5050505050815250509050806000015181602001518260400151935093509350509193909250565b60026020528060005260406000206000915090508060000160009054906101000a900460ff16908060010154908060020160009054906101000a900460ff1690806003018054610bf8906123ab565b80601f0160208091040260200160405190810160405280929190818152602001828054610c24906123ab565b8015610c715780601f10610c4657610100808354040283529160200191610c71565b820191906000526020600020905b815481529060010190602001808311610c5457829003601f168201915b5050505050905084565b6060600060035467ffffffffffffffff811115610cc1577f4e487b7100000000000000000000000000000000000000000000000000000000600052604160045260246000fd5b604051908082528060200260200182016040528015610cfa57816020015b610ce76117ad565b815260200190600190039081610cdf5790505b5090506000600190505b6003548111610f6257600160008281526020019081526020016000206040518060c001604052908160008201548152602001600182018054610d45906123ab565b80601f0160208091040260200160405190810160405280929190818152602001828054610d71906123ab565b8015610dbe5780601f10610d9357610100808354040283529160200191610dbe565b820191906000526020600020905b815481529060010190602001808311610da157829003601f168201915b5050505050815260200160028201548152602001600382018054610de1906123ab565b80601f0160208091040260200160405190810160405280929190818152602001828054610e0d906123ab565b8015610e5a5780601f10610e2f57610100808354040283529160200191610e5a565b820191906000526020600020905b815481529060010190602001808311610e3d57829003601f168201915b5050505050815260200160048201548152602001600582018054610e7d906123ab565b80601f0160208091040260200160405190810160405280929190818152602001828054610ea9906123ab565b8015610ef65780601f10610ecb57610100808354040283529160200191610ef6565b820191906000526020600020905b815481529060010190602001808311610ed957829003601f168201915b50505050508152505082600183610f0d91906122c8565b81518110610f44577f4e487b7100000000000000000000000000000000000000000000000000000000600052603260045260246000fd5b60200260200101819052508080610f5a906123dd565b915050610d04565b508091505090565b600460009054906101000a900460ff1681565b6060600260008373ffffffffffffffffffffffffffffffffffffffff1673ffffffffffffffffffffffffffffffffffffffff1681526020019081526020016000206003018054610fcc906123ab565b80601f0160208091040260200160405190810160405280929190818152602001828054610ff8906123ab565b80156110455780601f1061101a57610100808354040283529160200191611045565b820191906000526020600020905b81548152906001019060200180831161102857829003601f168201915b50505050509050919050565b600160205280600052604060002060009150905080600001549080600101805461107a906123ab565b80601f01602080910402602001604051908101604052809291908181526020018280546110a6906123ab565b80156110f35780601f106110c8576101008083540402835291602001916110f3565b820191906000526020600020905b8154815290600101906020018083116110d657829003601f168201915b50505050509080600201549080600301805461110e906123ab565b80601f016020809104026020016040519081016040528092919081815260200182805461113a906123ab565b80156111875780601f1061115c57610100808354040283529160200191611187565b820191906000526020600020905b81548152906001019060200180831161116a57829003601f168201915b5050505050908060040154908060050180546111a2906123ab565b80601f01602080910402602001604051908101604052809291908181526020018280546111ce906123ab565b801561121b5780601f106111f05761010080835404028352916020019161121b565b820191906000526020600020905b8154815290600101906020018083116111fe57829003601f168201915b5050505050905086565b60008054906101000a900473ffffffffffffffffffffffffffffffffffffffff1673ffffffffffffffffffffffffffffffffffffffff163373ffffffffffffffffffffffffffffffffffffffff16146112b3576040517f08c379a00000000000000000000000000000000000000000000000000000000081526004016112aa906120a8565b60405180910390fd5b60008060028111156112ee577f4e487b7100000000000000000000000000000000000000000000000000000000600052602160045260246000fd5b600460009054906101000a900460ff166002811115611336577f4e487b7100000000000000000000000000000000000000000000000000000000600052602160045260246000fd5b14611376576040517f08c379a000000000000000000000000000000000000000000000000000000000815260040161136d906120c8565b60405180910390fd5b600260008473ffffffffffffffffffffffffffffffffffffffff1673ffffffffffffffffffffffffffffffffffffffff16815260200190815260200160002060020160009054906101000a900460ff1615611406576040517f08c379a00000000000000000000000000000000000000000000000000000000081526004016113fd90612068565b60405180910390fd5b60405180608001604052806000151581526020016000815260200160011515815260200183815250600260008573ffffffffffffffffffffffffffffffffffffffff1673ffffffffffffffffffffffffffffffffffffffff16815260200190815260200160002060008201518160000160006101000a81548160ff0219169083151502179055506020820151816001015560408201518160020160006101000a81548160ff02191690831515021790555060608201518160030190805190602001906114d39291906117e3565b509050507fffeb7702be7dcd8fee170d954b70afb9a7c78f7f5cff232d037e7b9d8243356a8383604051611508929190611e85565b60405180910390a1505050565b60035481565b60008054906101000a900473ffffffffffffffffffffffffffffffffffffffff1673ffffffffffffffffffffffffffffffffffffffff163373ffffffffffffffffffffffffffffffffffffffff16146115a9576040517f08c379a00000000000000000000000000000000000000000000000000000000081526004016115a0906120a8565b60405180910390fd5b60008060028111156115e4577f4e487b7100000000000000000000000000000000000000000000000000000000600052602160045260246000fd5b600460009054906101000a900460ff16600281111561162c577f4e487b7100000000000000000000000000000000000000000000000000000000600052602160045260246000fd5b1461166c576040517f08c379a0000000000000000000000000000000000000000000000000000000008152600401611663906120c8565b60405180910390fd5b6003600081548092919061167f906123dd565b91905055506040518060c00160405280600354815260200186815260200160008152602001858152602001848152602001838152506001600060035481526020019081526020016000206000820151816000015560208201518160010190805190602001906116ef9291906117e3565b506040820151816002015560608201518160030190805190602001906117169291906117e3565b506080820151816004015560a082015181600501908051906020019061173d9291906117e3565b509050507f9097ea011b32b7bfd98a4f10a9ab1ea26fd644e6125f13b554cae047dc2359786003548686868660405161177a959493929190612123565b60405180910390a15050505050565b60008054906101000a900473ffffffffffffffffffffffffffffffffffffffff1681565b6040518060c001604052806000815260200160608152602001600081526020016060815260200160008152602001606081525090565b8280546117ef906123ab565b90600052602060002090601f0160209004810192826118115760008555611858565b82601f1061182a57805160ff1916838001178555611858565b82800160010185558215611858579182015b8281111561185757825182559160200191906001019061183c565b5b5090506118659190611869565b5090565b5b8082111561188257600081600090555060010161186a565b5090565b600061189961189484612232565b612201565b9050828152602081018484840111156118b157600080fd5b6118bc848285612369565b509392505050565b6000813590506118d381612507565b92915050565b6000813590506118e88161251e565b92915050565b600082601f8301126118ff57600080fd5b813561190f848260208601611886565b91505092915050565b6000813590506119278161252e565b92915050565b60006020828403121561193f57600080fd5b600061194d848285016118c4565b91505092915050565b6000806040838503121561196957600080fd5b6000611977858286016118c4565b925050602083013567ffffffffffffffff81111561199457600080fd5b6119a0858286016118ee565b9150509250929050565b6000602082840312156119bc57600080fd5b60006119ca848285016118d9565b91505092915050565b600080600080608085870312156119e957600080fd5b600085013567ffffffffffffffff811115611a0357600080fd5b611a0f878288016118ee565b945050602085013567ffffffffffffffff811115611a2c57600080fd5b611a38878288016118ee565b9350506040611a4987828801611918565b925050606085013567ffffffffffffffff811115611a6657600080fd5b611a72878288016118ee565b91505092959194509250565b600060208284031215611a9057600080fd5b6000611a9e84828501611918565b91505092915050565b6000611ab38383611db5565b905092915050565b611ac4816122fc565b82525050565b6000611ad582612272565b611adf8185612295565b935083602082028501611af185612262565b8060005b85811015611b2d5784840389528151611b0e8582611aa7565b9450611b1983612288565b925060208a01995050600181019050611af5565b50829750879550505050505092915050565b611b488161230e565b82525050565b611b5781612357565b82525050565b6000611b688261227d565b611b7281856122a6565b9350611b82818560208601612378565b611b8b816124e2565b840191505092915050565b6000611ba18261227d565b611bab81856122b7565b9350611bbb818560208601612378565b611bc4816124e2565b840191505092915050565b6000611bdc601e836122b7565b91507f596f7520617265206e6f74207265676973746572656420746f20766f746500006000830152602082019050919050565b6000611c1c6015836122b7565b91507f496e76616c696420636f6e74657374616e7420494400000000000000000000006000830152602082019050919050565b6000611c5c6018836122b7565b91507f566f74657220616c7265616479207265676973746572656400000000000000006000830152602082019050919050565b6000611c9c601f836122b7565b91507f43616e6e6f742072657665727420746f2070726576696f7573207374617465006000830152602082019050919050565b6000611cdc6022836122b7565b91507f4f6e6c792061646d696e2063616e20706572666f726d2074686973206163746960008301527f6f6e0000000000000000000000000000000000000000000000000000000000006020830152604082019050919050565b6000611d42601d836122b7565b91507f496e76616c696420737461746520666f72207468697320616374696f6e0000006000830152602082019050919050565b6000611d826016836122b7565b91507f596f75206861766520616c726561647920766f746564000000000000000000006000830152602082019050919050565b600060c083016000830151611dcd6000860182611e4c565b5060208301518482036020860152611de58282611b5d565b9150506040830151611dfa6040860182611e4c565b5060608301518482036060860152611e128282611b5d565b9150506080830151611e276080860182611e4c565b5060a083015184820360a0860152611e3f8282611b5d565b9150508091505092915050565b611e558161234d565b82525050565b611e648161234d565b82525050565b6000602082019050611e7f6000830184611abb565b92915050565b6000604082019050611e9a6000830185611abb565b8181036020830152611eac8184611b96565b90509392505050565b6000604082019050611eca6000830185611abb565b611ed76020830184611e5b565b9392505050565b60006020820190508181036000830152611ef88184611aca565b905092915050565b6000606082019050611f156000830186611b3f565b611f226020830185611e5b565b611f2f6040830184611b3f565b949350505050565b6000608082019050611f4c6000830187611b3f565b611f596020830186611e5b565b611f666040830185611b3f565b8181036060830152611f788184611b96565b905095945050505050565b6000602082019050611f986000830184611b4e565b92915050565b60006020820190508181036000830152611fb88184611b96565b905092915050565b600060a0820190508181036000830152611fda8188611b96565b9050611fe96020830187611e5b565b8181036040830152611ffb8186611b96565b905061200a6060830185611e5b565b818103608083015261201c8184611b96565b90509695505050505050565b6000602082019050818103600083015261204181611bcf565b9050919050565b6000602082019050818103600083015261206181611c0f565b9050919050565b6000602082019050818103600083015261208181611c4f565b9050919050565b600060208201905081810360008301526120a181611c8f565b9050919050565b600060208201905081810360008301526120c181611ccf565b9050919050565b600060208201905081810360008301526120e181611d35565b9050919050565b6000602082019050818103600083015261210181611d75565b9050919050565b600060208201905061211d6000830184611e5b565b92915050565b600060a0820190506121386000830188611e5b565b818103602083015261214a8187611b96565b9050818103604083015261215e8186611b96565b905061216d6060830185611e5b565b818103608083015261217f8184611b96565b90509695505050505050565b600060c0820190506121a06000830189611e5b565b81810360208301526121b28188611b96565b90506121c16040830187611e5b565b81810360608301526121d38186611b96565b90506121e26080830185611e5b565b81810360a08301526121f48184611b96565b9050979650505050505050565b6000604051905081810181811067ffffffffffffffff82111715612228576122276124b3565b5b8060405250919050565b600067ffffffffffffffff82111561224d5761224c6124b3565b5b601f19601f8301169050602081019050919050565b6000819050602082019050919050565b600081519050919050565b600081519050919050565b6000602082019050919050565b600082825260208201905092915050565b600082825260208201905092915050565b600082825260208201905092915050565b60006122d38261234d565b91506122de8361234d565b9250828210156122f1576122f0612426565b5b828203905092915050565b60006123078261232d565b9050919050565b60008115159050919050565b6000819050612328826124f3565b919050565b600073ffffffffffffffffffffffffffffffffffffffff82169050919050565b6000819050919050565b60006123628261231a565b9050919050565b82818337600083830152505050565b60005b8381101561239657808201518184015260208101905061237b565b838111156123a5576000848401525b50505050565b600060028204905060018216806123c357607f821691505b602082108114156123d7576123d6612484565b5b50919050565b60006123e88261234d565b91507fffffffffffffffffffffffffffffffffffffffffffffffffffffffffffffffff82141561241b5761241a612426565b5b600182019050919050565b7f4e487b7100000000000000000000000000000000000000000000000000000000600052601160045260246000fd5b7f4e487b7100000000000000000000000000000000000000000000000000000000600052602160045260246000fd5b7f4e487b7100000000000000000000000000000000000000000000000000000000600052602260045260246000fd5b7f4e487b7100000000000000000000000000000000000000000000000000000000600052604160045260246000fd5b6000601f19601f8301169050919050565b6003811061250457612503612455565b5b50565b612510816122fc565b811461251b57600080fd5b50565b6003811061252b57600080fd5b50565b6125378161234d565b811461254257600080fd5b5056fea2646970667358221220fe7d628c0b54827095d063e0c60e41c8656c80f75948b2a85e89f1554696c98164736f6c63430008000033",
  "immutableReferences": {},
  "source": "// SPDX-License-Identifier: MIT\npragma solidity ^0.8.0;\n\ncontract Voting {\n    struct Contestant {\n        uint id;\n        string name;\n        uint voteCount;\n        string party;\n        uint age;\n        string qualification;\n    }\n\n    struct Voter {\n        bool hasVoted;\n        uint vote;\n        bool isRegistered;\n        string name;\n    }\n\n    address public admin;\n    mapping(uint => Contestant) public contestants;\n    mapping(address => Voter) public voters;\n    uint public contestantsCount;\n\n    enum PHASE { reg, voting, done }\n    PHASE public state;\n\n    event ContestantAdded(uint id, string name, string party, uint age, string qualification);\n    event VoterRegistered(address voter, string name);\n    event Voted(address voter, uint contestantId);\n\n    modifier onlyAdmin() {\n        require(msg.sender == admin, \"Only admin can perform this action\");\n        _;\n    }\n\n    modifier validState(PHASE x) {\n        require(state == x, \"Invalid state for this action\");\n        _;\n    }\n\n    constructor() {\n        admin = msg.sender;\n        state = PHASE.reg;\n    }\n\n    function changeState(PHASE x) public onlyAdmin {\n        require(x > state, \"Cannot revert to previous state\");\n        state = x;\n    }\n\n    function addContestant(string memory _name, string memory _party, uint _age, string memory _qualification) public onlyAdmin validState(PHASE.reg) {\n        contestantsCount++;\n        contestants[contestantsCount] = Contestant(contestantsCount, _name, 0, _party, _age, _qualification);\n        emit ContestantAdded(contestantsCount, _name, _party, _age, _qualification);\n    }\n\n    function registerVoter(address user, string memory _name) public onlyAdmin validState(PHASE.reg) {\n        require(!voters[user].isRegistered, \"Voter already registered\");\n        voters[user] = Voter(false, 0, true, _name);\n        emit VoterRegistered(user, _name);\n    }\n\n    function vote(uint _contestantId) public validState(PHASE.voting) {\n        require(voters[msg.sender].isRegistered, \"You are not registered to vote\");\n        require(!voters[msg.sender].hasVoted, \"You have already voted\");\n        require(_contestantId > 0 && _contestantId <= contestantsCount, \"Invalid contestant ID\");\n        \n        contestants[_contestantId].voteCount++;\n        voters[msg.sender].hasVoted = true;\n        voters[msg.sender].vote = _contestantId;\n        emit Voted(msg.sender, _contestantId);\n    }\n\n    function getContestant(uint _id) public view returns (string memory name, uint voteCount, string memory party, uint age, string memory qualification) {\n        require(_id > 0 && _id <= contestantsCount, \"Invalid contestant ID\");\n        Contestant memory contestant = contestants[_id];\n        return (contestant.name, contestant.voteCount, contestant.party, contestant.age, contestant.qualification);\n    }\n\n    function getAllContestants() public view returns (Contestant[] memory) {\n        Contestant[] memory allContestants = new Contestant[](contestantsCount);\n        for (uint i = 1; i <= contestantsCount; i++) {\n            allContestants[i - 1] = contestants[i];\n        }\n        return allContestants;\n    }\n\n    function getVoterName(address _voter) public view returns (string memory) {\n        return voters[_voter].name;\n    }\n\n    function getVoterStatus(address _voter) public view returns (bool hasVoted, uint vote, bool isRegistered) {\n        Voter memory voter = voters[_voter];\n        return (voter.hasVoted, voter.vote, voter.isRegistered);\n    }\n\n    function getVotingStatus() public view returns (PHASE) {\n        return state;\n    }\n}\n",
  "sourcePath": "D:\\My Projects\\blockchain-voting-system\\contracts\\Voting.sol",
  "compiler": {
    "name": "solc",
    "version": "0.8.0+commit.c7dfd78e.Emscripten.clang"
  },
  "schemaVersion": "3.4.16",
  "updatedAt": "2024-07-27T15:12:57.625Z",
  "networkType": "ethereum",
  "devdoc": {
    "kind": "dev",
    "methods": {},
    "version": 1
  },
  "userdoc": {
    "kind": "user",
    "methods": {},
    "version": 1
  }
}