{
  "contractName": "Voting",
  "abi": [
    {
      "inputs": [
        {
          "internalType": "address[]",
          "name": "_eligibleVoters",
          "type": "address[]"
        },
        {
          "internalType": "string[]",
          "name": "_voterNames",
          "type": "string[]"
        },
        {
          "internalType": "uint256",
          "name": "_votingDurationMinutes",
          "type": "uint256"
        }
      ],
      "stateMutability": "nonpayable",
      "type": "constructor"
    },
    {
      "anonymous": false,
      "inputs": [
        {
          "indexed": true,
          "internalType": "uint256",
          "name": "_candidateId",
          "type": "uint256"
        }
      ],
      "name": "votedEvent",
      "type": "event"
    },
    {
      "inputs": [
        {
          "internalType": "uint256",
          "name": "",
          "type": "uint256"
        }
      ],
      "name": "allVoters",
      "outputs": [
        {
          "internalType": "address",
          "name": "",
          "type": "address"
        }
      ],
      "stateMutability": "view",
      "type": "function",
      "constant": true
    },
    {
      "inputs": [
        {
          "internalType": "uint256",
          "name": "",
          "type": "uint256"
        }
      ],
      "name": "candidates",
      "outputs": [
        {
          "internalType": "uint256",
          "name": "id",
          "type": "uint256"
        },
        {
          "internalType": "string",
          "name": "name",
          "type": "string"
        },
        {
          "internalType": "uint256",
          "name": "voteCount",
          "type": "uint256"
        }
      ],
      "stateMutability": "view",
      "type": "function",
      "constant": true
    },
    {
      "inputs": [],
      "name": "candidatesCount",
      "outputs": [
        {
          "internalType": "uint256",
          "name": "",
          "type": "uint256"
        }
      ],
      "stateMutability": "view",
      "type": "function",
      "constant": true
    },
    {
      "inputs": [
        {
          "internalType": "uint256",
          "name": "",
          "type": "uint256"
        }
      ],
      "name": "eligibleVoters",
      "outputs": [
        {
          "internalType": "address",
          "name": "",
          "type": "address"
        }
      ],
      "stateMutability": "view",
      "type": "function",
      "constant": true
    },
    {
      "inputs": [
        {
          "internalType": "address",
          "name": "",
          "type": "address"
        }
      ],
      "name": "voterNames",
      "outputs": [
        {
          "internalType": "string",
          "name": "",
          "type": "string"
        }
      ],
      "stateMutability": "view",
      "type": "function",
      "constant": true
    },
    {
      "inputs": [
        {
          "internalType": "address",
          "name": "",
          "type": "address"
        }
      ],
      "name": "voters",
      "outputs": [
        {
          "internalType": "bool",
          "name": "",
          "type": "bool"
        }
      ],
      "stateMutability": "view",
      "type": "function",
      "constant": true
    },
    {
      "inputs": [],
      "name": "votingEndTime",
      "outputs": [
        {
          "internalType": "uint256",
          "name": "",
          "type": "uint256"
        }
      ],
      "stateMutability": "view",
      "type": "function",
      "constant": true
    },
    {
      "inputs": [
        {
          "internalType": "uint256",
          "name": "_candidateId",
          "type": "uint256"
        }
      ],
      "name": "vote",
      "outputs": [],
      "stateMutability": "nonpayable",
      "type": "function"
    },
    {
      "inputs": [],
      "name": "getVotersStatus",
      "outputs": [
        {
          "internalType": "string[]",
          "name": "",
          "type": "string[]"
        },
        {
          "internalType": "string[]",
          "name": "",
          "type": "string[]"
        }
      ],
      "stateMutability": "view",
      "type": "function",
      "constant": true
    }
  ],
  "bytecode": "0x60806040523480156200001157600080fd5b5060405162001135380380620011358339810160408190526200003491620003fd565b8151835114620000615760405162461bcd60e51b81526004016200005890620004e0565b60405180910390fd5b82516200007690600690602086019062000210565b5060005b83518110156200012557828181518110620000a557634e487b7160e01b600052603260045260246000fd5b602002602001015160026000868481518110620000d257634e487b7160e01b600052603260045260246000fd5b60200260200101516001600160a01b03166001600160a01b0316815260200190815260200160002090805190602001906200010f9291906200027a565b50806200011c81620005fb565b9150506200007a565b506200013381603c6200059c565b6200013f904262000581565b600455604080518082019091526006815265476f6f676c6560d01b60208201526200016a906200019d565b60408051808201909152600881526746616365626f6f6b60c01b602082015262000194906200019d565b50505062000645565b60038054906000620001af83620005fb565b90915550506040805160608101825260035480825260208083018581526000848601819052928352600180835294909220835181559151805193949293620001ff9385019291909101906200027a565b506040820151816002015590505050565b82805482825590600052602060002090810192821562000268579160200282015b828111156200026857825182546001600160a01b0319166001600160a01b0390911617825560209092019160019091019062000231565b5062000276929150620002f7565b5090565b8280546200028890620005be565b90600052602060002090601f016020900481019282620002ac576000855562000268565b82601f10620002c757805160ff191683800117855562000268565b8280016001018555821562000268579182015b8281111562000268578251825591602001919060010190620002da565b5b80821115620002765760008155600101620002f8565b6000601f838184011262000320578182fd5b825160206200033962000333836200055b565b6200052f565b82815281810190868301865b85811015620003ef57815189018a603f82011262000361578889fd5b808601516001600160401b038111156200037f576200037f6200062f565b62000392818a01601f191688016200052f565b81815260408d81848601011115620003a8578b8cfd5b8b5b83811015620003c7578481018201518382018b01528901620003aa565b83811115620003d8578c8a85850101525b505086525050928401929084019060010162000345565b509098975050505050505050565b60008060006060848603121562000412578283fd5b83516001600160401b038082111562000429578485fd5b818601915086601f8301126200043d578485fd5b815160206200045062000333836200055b565b82815281810190858301838502870184018c10156200046d57898afd5b8996505b84871015620004a65780516001600160a01b038116811462000491578a8bfd5b83526001969096019591830191830162000471565b5091890151919750909350505080821115620004c0578384fd5b50620004cf868287016200030e565b925050604084015190509250925092565b6020808252602f908201527f566f7465722061646472657373657320616e64206e616d6573206d757374206d60408201526e30ba31b41034b7103632b733ba341760891b606082015260800190565b6040518181016001600160401b03811182821017156200055357620005536200062f565b604052919050565b60006001600160401b038211156200057757620005776200062f565b5060209081020190565b6000821982111562000597576200059762000619565b500190565b6000816000190483118215151615620005b957620005b962000619565b500290565b600281046001821680620005d357607f821691505b60208210811415620005f557634e487b7160e01b600052602260045260246000fd5b50919050565b600060001982141562000612576200061262000619565b5060010190565b634e487b7160e01b600052601160045260246000fd5b634e487b7160e01b600052604160045260246000fd5b610ae080620006556000396000f3fe608060405234801561001057600080fd5b50600436106100935760003560e01c80633477ee2e116100665780633477ee2e146100e9578063856506741461010b57806390caf2981461012b578063a3ec138d1461013e578063f140cf911461015e57610093565b80630121b93f146100985780631ea736e0146100ad5780632d35a8a2146100cb578063335974cd146100d3575b600080fd5b6100ab6100a6366004610872565b61017e565b005b6100b56102b0565b6040516100c29190610a16565b60405180910390f35b6100b56102b6565b6100db6102bc565b6040516100c292919061093f565b6100fc6100f7366004610872565b6106b1565b6040516100c293929190610a1f565b61011e610119366004610872565b61075b565b6040516100c2919061092b565b61011e610139366004610872565b610785565b61015161014c366004610844565b610795565b6040516100c2919061096d565b61017161016c366004610844565b6107aa565b6040516100c29190610978565b60045442106101a85760405162461bcd60e51b815260040161019f9061098b565b60405180910390fd5b3360009081526020819052604090205460ff16156101d85760405162461bcd60e51b815260040161019f906109c2565b6000811180156101ea57506003548111155b6102065760405162461bcd60e51b815260040161019f906109ea565b33600090815260208181526040808320805460ff19166001908117909155848452909152812060020180549161023b83610a83565b909155505060405181907ffff3c900d938d21d0990d786e819f29b8d05c1ef587b462b939609625b684b1690600090a250600580546001810182556000919091527f036b6384b5eca791c62761152d0c79bb0604c104a5fb6f4eb0703f3154bb3db00180546001600160a01b03191633179055565b60045481565b60035481565b60608060008060005b60065481101561035257600080600683815481106102f357634e487b7160e01b600052603260045260246000fd5b60009182526020808320909101546001600160a01b0316835282019290925260400190205460ff1615610332578261032a81610a83565b935050610340565b8161033c81610a83565b9250505b8061034a81610a83565b9150506102c5565b5060008267ffffffffffffffff81111561037c57634e487b7160e01b600052604160045260246000fd5b6040519080825280602002602001820160405280156103af57816020015b606081526020019060019003908161039a5790505b50905060008267ffffffffffffffff8111156103db57634e487b7160e01b600052604160045260246000fd5b60405190808252806020026020018201604052801561040e57816020015b60608152602001906001900390816103f95790505b509050600093506000925060005b6006548110156106a5576000806006838154811061044a57634e487b7160e01b600052603260045260246000fd5b60009182526020808320909101546001600160a01b0316835282019290925260400190205460ff161561058757600260006006838154811061049c57634e487b7160e01b600052603260045260246000fd5b60009182526020808320909101546001600160a01b03168352820192909252604001902080546104cb90610a48565b80601f01602080910402602001604051908101604052809291908181526020018280546104f790610a48565b80156105445780601f1061051957610100808354040283529160200191610544565b820191906000526020600020905b81548152906001019060200180831161052757829003601f168201915b505050505083868151811061056957634e487b7160e01b600052603260045260246000fd5b6020026020010181905250848061057f90610a83565b955050610693565b60026000600683815481106105ac57634e487b7160e01b600052603260045260246000fd5b60009182526020808320909101546001600160a01b03168352820192909252604001902080546105db90610a48565b80601f016020809104026020016040519081016040528092919081815260200182805461060790610a48565b80156106545780601f1061062957610100808354040283529160200191610654565b820191906000526020600020905b81548152906001019060200180831161063757829003601f168201915b505050505082858151811061067957634e487b7160e01b600052603260045260246000fd5b6020026020010181905250838061068f90610a83565b9450505b8061069d81610a83565b91505061041c565b50909450925050509091565b6001602081905260009182526040909120805491810180546106d290610a48565b80601f01602080910402602001604051908101604052809291908181526020018280546106fe90610a48565b801561074b5780601f106107205761010080835404028352916020019161074b565b820191906000526020600020905b81548152906001019060200180831161072e57829003601f168201915b5050505050908060020154905083565b6005818154811061076b57600080fd5b6000918252602090912001546001600160a01b0316905081565b6006818154811061076b57600080fd5b60006020819052908152604090205460ff1681565b600260205260009081526040902080546107c390610a48565b80601f01602080910402602001604051908101604052809291908181526020018280546107ef90610a48565b801561083c5780601f106108115761010080835404028352916020019161083c565b820191906000526020600020905b81548152906001019060200180831161081f57829003601f168201915b505050505081565b600060208284031215610855578081fd5b81356001600160a01b038116811461086b578182fd5b9392505050565b600060208284031215610883578081fd5b5035919050565b60008282518085526020808601955080818302840101818601855b848110156108d357601f198684030189526108c18383516108e0565b988401989250908301906001016108a5565b5090979650505050505050565b60008151808452815b81811015610905576020818501810151868301820152016108e9565b818111156109165782602083870101525b50601f01601f19169290920160200192915050565b6001600160a01b0391909116815260200190565b600060408252610952604083018561088a565b8281036020840152610964818561088a565b95945050505050565b901515815260200190565b60006020825261086b60208301846108e0565b60208082526018908201527f566f74696e6720706572696f642068617320656e6465642e0000000000000000604082015260600190565b6020808252600e908201526d20b63932b0b23c903b37ba32b21760911b604082015260600190565b60208082526012908201527124b73b30b634b21031b0b73234b230ba329760711b604082015260600190565b90815260200190565b600084825260606020830152610a3860608301856108e0565b9050826040830152949350505050565b600281046001821680610a5c57607f821691505b60208210811415610a7d57634e487b7160e01b600052602260045260246000fd5b50919050565b6000600019821415610aa357634e487b7160e01b81526011600452602481fd5b506001019056fea26469706673582212209721fc737b3664be49405b9f6c1256b3f6d9ac9fb913094485540629f2f109d264736f6c63430008000033",
  "immutableReferences": {},
  "source": "// SPDX-License-Identifier: MIT\npragma solidity ^0.8.0;\n\ncontract Voting {\n    struct Candidate {\n        uint id;\n        string name;\n        uint voteCount;\n    }\n\n    mapping(address => bool) public voters;\n    mapping(uint => Candidate) public candidates;\n    mapping(address => string) public voterNames; // Map address to names\n    uint public candidatesCount;\n    uint public votingEndTime; // Store voting end time\n    address[] public allVoters;\n    address[] public eligibleVoters;\n\n    event votedEvent(uint indexed _candidateId);\n\n    constructor(address[] memory _eligibleVoters, string[] memory _voterNames, uint _votingDurationMinutes) {\n        require(_eligibleVoters.length == _voterNames.length, \"Voter addresses and names must match in length.\");\n\n        eligibleVoters = _eligibleVoters;\n\n        for (uint i = 0; i < _eligibleVoters.length; i++) {\n            voterNames[_eligibleVoters[i]] = _voterNames[i];\n        }\n\n        // Set voting end time\n        votingEndTime = block.timestamp + (_votingDurationMinutes * 1 minutes);\n\n        // Add candidates\n        addCandidate(\"Google\");\n        addCandidate(\"Facebook\");\n    }\n\n    function addCandidate(string memory _name) private {\n        candidatesCount++;\n        candidates[candidatesCount] = Candidate(candidatesCount, _name, 0);\n    }\n\n    function vote(uint _candidateId) public {\n        require(block.timestamp < votingEndTime, \"Voting period has ended.\");\n        require(!voters[msg.sender], \"Already voted.\");\n        require(_candidateId > 0 && _candidateId <= candidatesCount, \"Invalid candidate.\");\n\n        voters[msg.sender] = true;\n        candidates[_candidateId].voteCount++;\n\n        emit votedEvent(_candidateId);\n\n        allVoters.push(msg.sender);  // Track all voters who have voted\n    }\n\n    function getVotersStatus() public view returns (string[] memory, string[] memory) {\n        uint votedCount = 0;\n        uint notVotedCount = 0;\n\n        for (uint i = 0; i < eligibleVoters.length; i++) {\n            if (voters[eligibleVoters[i]]) {\n                votedCount++;\n            } else {\n                notVotedCount++;\n            }\n        }\n\n        string[] memory voted = new string[](votedCount);\n        string[] memory notVoted = new string[](notVotedCount);\n\n        votedCount = 0;\n        notVotedCount = 0;\n\n        for (uint i = 0; i < eligibleVoters.length; i++) {\n            if (voters[eligibleVoters[i]]) {\n                voted[votedCount] = voterNames[eligibleVoters[i]];\n                votedCount++;\n            } else {\n                notVoted[notVotedCount] = voterNames[eligibleVoters[i]];\n                notVotedCount++;\n            }\n        }\n\n        return (voted, notVoted);\n    }\n}\n",
  "sourcePath": "D:\\My Projects\\blockchain-voting-system\\contracts\\Voting.sol",
  "compiler": {
    "name": "solc",
    "version": "0.8.0+commit.c7dfd78e.Emscripten.clang"
  },
  "schemaVersion": "3.4.16",
  "updatedAt": "2024-08-17T12:50:15.742Z",
  "networkType": "ethereum",
  "devdoc": {
    "kind": "dev",
    "methods": {},
    "version": 1
  },
  "userdoc": {
    "kind": "user",
    "methods": {},
    "version": 1
  }
}