{
  "contractName": "Voting",
  "abi": [
    {
      "inputs": [
        {
          "internalType": "address[]",
          "name": "_eligibleVoters",
          "type": "address[]"
        }
      ],
      "stateMutability": "nonpayable",
      "type": "constructor"
    },
    {
      "anonymous": false,
      "inputs": [
        {
          "indexed": true,
          "internalType": "uint256",
          "name": "_candidateId",
          "type": "uint256"
        }
      ],
      "name": "votedEvent",
      "type": "event"
    },
    {
      "inputs": [
        {
          "internalType": "uint256",
          "name": "",
          "type": "uint256"
        }
      ],
      "name": "allVoters",
      "outputs": [
        {
          "internalType": "address",
          "name": "",
          "type": "address"
        }
      ],
      "stateMutability": "view",
      "type": "function",
      "constant": true
    },
    {
      "inputs": [
        {
          "internalType": "uint256",
          "name": "",
          "type": "uint256"
        }
      ],
      "name": "candidates",
      "outputs": [
        {
          "internalType": "uint256",
          "name": "id",
          "type": "uint256"
        },
        {
          "internalType": "string",
          "name": "name",
          "type": "string"
        },
        {
          "internalType": "uint256",
          "name": "voteCount",
          "type": "uint256"
        }
      ],
      "stateMutability": "view",
      "type": "function",
      "constant": true
    },
    {
      "inputs": [],
      "name": "candidatesCount",
      "outputs": [
        {
          "internalType": "uint256",
          "name": "",
          "type": "uint256"
        }
      ],
      "stateMutability": "view",
      "type": "function",
      "constant": true
    },
    {
      "inputs": [
        {
          "internalType": "uint256",
          "name": "",
          "type": "uint256"
        }
      ],
      "name": "eligibleVoters",
      "outputs": [
        {
          "internalType": "address",
          "name": "",
          "type": "address"
        }
      ],
      "stateMutability": "view",
      "type": "function",
      "constant": true
    },
    {
      "inputs": [
        {
          "internalType": "address",
          "name": "",
          "type": "address"
        }
      ],
      "name": "voters",
      "outputs": [
        {
          "internalType": "bool",
          "name": "",
          "type": "bool"
        }
      ],
      "stateMutability": "view",
      "type": "function",
      "constant": true
    },
    {
      "inputs": [
        {
          "internalType": "uint256",
          "name": "_candidateId",
          "type": "uint256"
        }
      ],
      "name": "vote",
      "outputs": [],
      "stateMutability": "nonpayable",
      "type": "function"
    },
    {
      "inputs": [],
      "name": "getVotersStatus",
      "outputs": [
        {
          "internalType": "address[]",
          "name": "",
          "type": "address[]"
        },
        {
          "internalType": "address[]",
          "name": "",
          "type": "address[]"
        }
      ],
      "stateMutability": "view",
      "type": "function",
      "constant": true
    }
  ],
  "bytecode": "0x60806040523480156200001157600080fd5b5060405162000be338038062000be3833981016040819052620000349162000239565b8051620000499060049060208401906200011e565b5060408051808201909152600a81526924b6b930b71025b430b760b11b60208201526200007690620000ab565b60408051808201909152600c81526b2730bbb0bd1029b430b934b360a11b6020820152620000a490620000ab565b5062000382565b60028054906000620000bd8362000344565b909155505060408051606081018252600254808252602080830185815260008486018190529283526001808352949092208351815591518051939492936200010d93850192919091019062000188565b506040820151816002015590505050565b82805482825590600052602060002090810192821562000176579160200282015b828111156200017657825182546001600160a01b0319166001600160a01b039091161782556020909201916001909101906200013f565b506200018492915062000205565b5090565b828054620001969062000307565b90600052602060002090601f016020900481019282620001ba576000855562000176565b82601f10620001d557805160ff191683800117855562000176565b8280016001018555821562000176579182015b8281111562000176578251825591602001919060010190620001e8565b5b8082111562000184576000815560010162000206565b80516001600160a01b03811681146200023457600080fd5b919050565b600060208083850312156200024c578182fd5b82516001600160401b038082111562000263578384fd5b818501915085601f83011262000277578384fd5b8151818111156200028c576200028c6200036c565b83810260405185828201018181108582111715620002ae57620002ae6200036c565b604052828152858101935084860182860187018a1015620002cd578788fd5b8795505b83861015620002fa57620002e5816200021c565b855260019590950194938601938601620002d1565b5098975050505050505050565b6002810460018216806200031c57607f821691505b602082108114156200033e57634e487b7160e01b600052602260045260246000fd5b50919050565b60006000198214156200036557634e487b7160e01b81526011600452602481fd5b5060010190565b634e487b7160e01b600052604160045260246000fd5b61085180620003926000396000f3fe608060405234801561001057600080fd5b506004361061007d5760003560e01c80633477ee2e1161005b5780633477ee2e146100cb57806385650674146100ed57806390caf2981461010d578063a3ec138d146101205761007d565b80630121b93f146100825780632d35a8a214610097578063335974cd146100b5575b600080fd5b610095610090366004610651565b610140565b005b61009f610251565b6040516100ac919061074d565b60405180910390f35b6100bd610257565b6040516100ac9291906106c0565b6100de6100d9366004610651565b61052a565b6040516100ac93929190610756565b6101006100fb366004610651565b6105d4565b6040516100ac91906106ac565b61010061011b366004610651565b6105fe565b61013361012e366004610623565b61060e565b6040516100ac91906106ee565b3360009081526020819052604090205460ff16156101795760405162461bcd60e51b8152600401610170906106f9565b60405180910390fd5b60008111801561018b57506002548111155b6101a75760405162461bcd60e51b815260040161017090610721565b33600090815260208181526040808320805460ff1916600190811790915584845290915281206002018054916101dc836107f4565b909155505060405181907ffff3c900d938d21d0990d786e819f29b8d05c1ef587b462b939609625b684b1690600090a250600380546001810182556000919091527fc2575a0e9e593c00f959f8c92f12db2869c3395a3b0502d05e2516446f71f85b0180546001600160a01b03191633179055565b60025481565b60608060008060005b6004548110156102ed576000806004838154811061028e57634e487b7160e01b600052603260045260246000fd5b60009182526020808320909101546001600160a01b0316835282019290925260400190205460ff16156102cd57826102c5816107f4565b9350506102db565b816102d7816107f4565b9250505b806102e5816107f4565b915050610260565b5060008267ffffffffffffffff81111561031757634e487b7160e01b600052604160045260246000fd5b604051908082528060200260200182016040528015610340578160200160208202803683370190505b50905060008267ffffffffffffffff81111561036c57634e487b7160e01b600052604160045260246000fd5b604051908082528060200260200182016040528015610395578160200160208202803683370190505b509050600093506000925060005b60045481101561051e57600080600483815481106103d157634e487b7160e01b600052603260045260246000fd5b60009182526020808320909101546001600160a01b0316835282019290925260400190205460ff1615610487576004818154811061041f57634e487b7160e01b600052603260045260246000fd5b9060005260206000200160009054906101000a90046001600160a01b031683868151811061045d57634e487b7160e01b600052603260045260246000fd5b6001600160a01b03909216602092830291909101909101528461047f816107f4565b95505061050c565b600481815481106104a857634e487b7160e01b600052603260045260246000fd5b9060005260206000200160009054906101000a90046001600160a01b03168285815181106104e657634e487b7160e01b600052603260045260246000fd5b6001600160a01b039092166020928302919091019091015283610508816107f4565b9450505b80610516816107f4565b9150506103a3565b50909450925050509091565b60016020819052600091825260409091208054918101805461054b906107b9565b80601f0160208091040260200160405190810160405280929190818152602001828054610577906107b9565b80156105c45780601f10610599576101008083540402835291602001916105c4565b820191906000526020600020905b8154815290600101906020018083116105a757829003601f168201915b5050505050908060020154905083565b600381815481106105e457600080fd5b6000918252602090912001546001600160a01b0316905081565b600481815481106105e457600080fd5b60006020819052908152604090205460ff1681565b600060208284031215610634578081fd5b81356001600160a01b038116811461064a578182fd5b9392505050565b600060208284031215610662578081fd5b5035919050565b6000815180845260208085019450808401835b838110156106a15781516001600160a01b03168752958201959082019060010161067c565b509495945050505050565b6001600160a01b0391909116815260200190565b6000604082526106d36040830185610669565b82810360208401526106e58185610669565b95945050505050565b901515815260200190565b6020808252600e908201526d20b63932b0b23c903b37ba32b21760911b604082015260600190565b60208082526012908201527124b73b30b634b21031b0b73234b230ba329760711b604082015260600190565b90815260200190565b600084825260206060818401528451806060850152825b818110156107895786810183015185820160800152820161076d565b8181111561079a5783608083870101525b5060408401949094525050601f91909101601f19160160800192915050565b6002810460018216806107cd57607f821691505b602082108114156107ee57634e487b7160e01b600052602260045260246000fd5b50919050565b600060001982141561081457634e487b7160e01b81526011600452602481fd5b506001019056fea2646970667358221220efb448bacf251113c224ef73a1c84f94dffe543cf7beebd2556d50079299a0ef64736f6c63430008000033",
  "immutableReferences": {},
  "source": "// SPDX-License-Identifier: MIT\npragma solidity ^0.8.0;\n\ncontract Voting {\n    struct Candidate {\n        uint id;\n        string name;\n        uint voteCount;\n    }\n\n    mapping(address => bool) public voters;\n    mapping(uint => Candidate) public candidates;\n    uint public candidatesCount;\n    address[] public allVoters;\n    address[] public eligibleVoters;\n\n    event votedEvent(uint indexed _candidateId);\n\n    constructor(address[] memory _eligibleVoters) {\n        eligibleVoters = _eligibleVoters;\n\n        // Add candidates\n        addCandidate(\"Imran Khan\");\n        addCandidate(\"Nawaz Sharif\");\n    }\n\n    function addCandidate(string memory _name) private {\n        candidatesCount++;\n        candidates[candidatesCount] = Candidate(candidatesCount, _name, 0);\n    }\n\n    function vote(uint _candidateId) public {\n        require(!voters[msg.sender], \"Already voted.\");\n        require(_candidateId > 0 && _candidateId <= candidatesCount, \"Invalid candidate.\");\n\n        voters[msg.sender] = true;\n        candidates[_candidateId].voteCount++;\n\n        emit votedEvent(_candidateId);\n\n        allVoters.push(msg.sender);  // Track all voters who have voted\n    }\n\n    function getVotersStatus() public view returns (address[] memory, address[] memory) {\n        uint votedCount = 0;\n        uint notVotedCount = 0;\n\n        for (uint i = 0; i < eligibleVoters.length; i++) {\n            if (voters[eligibleVoters[i]]) {\n                votedCount++;\n            } else {\n                notVotedCount++;\n            }\n        }\n\n        address[] memory voted = new address[](votedCount);\n        address[] memory notVoted = new address[](notVotedCount);\n\n        votedCount = 0;\n        notVotedCount = 0;\n\n        for (uint i = 0; i < eligibleVoters.length; i++) {\n            if (voters[eligibleVoters[i]]) {\n                voted[votedCount] = eligibleVoters[i];\n                votedCount++;\n            } else {\n                notVoted[notVotedCount] = eligibleVoters[i];\n                notVotedCount++;\n            }\n        }\n\n        return (voted, notVoted);\n    }\n}\n",
  "sourcePath": "D:\\My Projects\\blockchain-voting-system\\contracts\\Voting.sol",
  "compiler": {
    "name": "solc",
    "version": "0.8.0+commit.c7dfd78e.Emscripten.clang"
  },
  "schemaVersion": "3.4.16",
  "updatedAt": "2024-08-11T05:57:21.557Z",
  "networkType": "ethereum",
  "devdoc": {
    "kind": "dev",
    "methods": {},
    "version": 1
  },
  "userdoc": {
    "kind": "user",
    "methods": {},
    "version": 1
  }
}